{
  "_format": "hh3-artifact-1",
  "contractName": "EscrowFactory",
  "sourceName": "contracts/EscrowFactory.sol",
  "abi": [
    {
      "inputs": [
        {
          "internalType": "address",
          "name": "_arbiterRegistryAddress",
          "type": "address"
        }
      ],
      "stateMutability": "nonpayable",
      "type": "constructor"
    },
    {
      "anonymous": false,
      "inputs": [
        {
          "indexed": true,
          "internalType": "address",
          "name": "escrowAddress",
          "type": "address"
        },
        {
          "indexed": true,
          "internalType": "address",
          "name": "client",
          "type": "address"
        },
        {
          "indexed": true,
          "internalType": "address",
          "name": "freelancer",
          "type": "address"
        },
        {
          "indexed": false,
          "internalType": "uint256",
          "name": "totalAmount",
          "type": "uint256"
        }
      ],
      "name": "EscrowCreated",
      "type": "event"
    },
    {
      "inputs": [],
      "name": "arbiterRegistry",
      "outputs": [
        {
          "internalType": "contract ArbiterRegistry",
          "name": "",
          "type": "address"
        }
      ],
      "stateMutability": "view",
      "type": "function"
    },
    {
      "inputs": [
        {
          "internalType": "address",
          "name": "_freelancer",
          "type": "address"
        },
        {
          "internalType": "address",
          "name": "_arbiter",
          "type": "address"
        },
        {
          "internalType": "address",
          "name": "_tokenAddress",
          "type": "address"
        },
        {
          "internalType": "uint256[]",
          "name": "_payouts",
          "type": "uint256[]"
        },
        {
          "internalType": "string[]",
          "name": "_detailsHashes",
          "type": "string[]"
        }
      ],
      "name": "createEscrow",
      "outputs": [],
      "stateMutability": "nonpayable",
      "type": "function"
    },
    {
      "inputs": [
        {
          "internalType": "uint256",
          "name": "",
          "type": "uint256"
        }
      ],
      "name": "escrowContracts",
      "outputs": [
        {
          "internalType": "address",
          "name": "",
          "type": "address"
        }
      ],
      "stateMutability": "view",
      "type": "function"
    },
    {
      "inputs": [],
      "name": "getEscrowContracts",
      "outputs": [
        {
          "internalType": "address[]",
          "name": "",
          "type": "address[]"
        }
      ],
      "stateMutability": "view",
      "type": "function"
    }
  ],
  "bytecode": "0x60a060405234801561000f575f5ffd5b5060405161244538038061244583398101604081905261002e916100a4565b6001600160a01b0381166100935760405162461bcd60e51b815260206004820152602260248201527f464143544f52593a20496e76616c696420726567697374727920616464726573604482015261399760f11b606482015260840160405180910390fd5b6001600160a01b03166080526100d1565b5f602082840312156100b4575f5ffd5b81516001600160a01b03811681146100ca575f5ffd5b9392505050565b6080516123576100ee5f395f81816068015260ee01526123575ff3fe608060405234801561000f575f5ffd5b506004361061004a575f3560e01c80630ab517611461004e5780632535896a146100635780632f3b703f146100a7578063d0e2dfba146100bc575b5f5ffd5b61006161005c3660046104e1565b6100cf565b005b61008a7f000000000000000000000000000000000000000000000000000000000000000081565b6040516001600160a01b0390911681526020015b60405180910390f35b6100af6102de565b60405161009e91906105cd565b61008a6100ca366004610618565b61033d565b6040516310f6786160e21b81526001600160a01b0385811660048301527f000000000000000000000000000000000000000000000000000000000000000016906343d9e18490602401602060405180830381865afa158015610133573d5f5f3e3d5ffd5b505050506040513d601f19601f82011682018060405250810190610157919061062f565b6101b55760405162461bcd60e51b815260206004820152602560248201527f464143544f52593a20496e76616c6964206f7220696e6163746976652061726260448201526434ba32b91760d91b606482015260840160405180910390fd5b5f3386868686866040516101c890610364565b6101d7969594939291906106cf565b604051809103905ff0801580156101f0573d5f5f3e3d5ffd5b505f80546001810182559080527f290decd9548b62a8d60345a988386fc84ba6bc95484008f6362f93160ef3e5630180546001600160a01b0319166001600160a01b0383811691821790925560408051631a39d8ef60e01b815290519394509189169233927fd99c67ae0185d6b0a36717d67d259f252914f7955744e4d81a91685ff480896d918391631a39d8ef9160048083019260209291908290030181865afa1580156102a1573d5f5f3e3d5ffd5b505050506040513d601f19601f820116820180604052508101906102c59190610755565b60405190815260200160405180910390a4505050505050565b60605f80548060200260200160405190810160405280929190818152602001828054801561033357602002820191905f5260205f20905b81546001600160a01b03168152600190910190602001808311610315575b5050505050905090565b5f818154811061034b575f80fd5b5f918252602090912001546001600160a01b0316905081565b611bb58061076d83390190565b80356001600160a01b0381168114610387575f5ffd5b919050565b634e487b7160e01b5f52604160045260245ffd5b604051601f8201601f1916810167ffffffffffffffff811182821017156103c9576103c961038c565b604052919050565b5f67ffffffffffffffff8211156103ea576103ea61038c565b5060051b60200190565b5f82601f830112610403575f5ffd5b8135610416610411826103d1565b6103a0565b8082825260208201915060208360051b860101925085831115610437575f5ffd5b602085015b838110156104d757803567ffffffffffffffff81111561045a575f5ffd5b8601603f8101881361046a575f5ffd5b602081013567ffffffffffffffff8111156104875761048761038c565b61049a601f8201601f19166020016103a0565b8181526040838301018a10156104ae575f5ffd5b816040840160208301375f6020838301015280865250505060208301925060208101905061043c565b5095945050505050565b5f5f5f5f5f60a086880312156104f5575f5ffd5b6104fe86610371565b945061050c60208701610371565b935061051a60408701610371565b9250606086013567ffffffffffffffff811115610535575f5ffd5b8601601f81018813610545575f5ffd5b8035610553610411826103d1565b8082825260208201915060208360051b85010192508a831115610574575f5ffd5b6020840193505b8284101561059657833582526020938401939091019061057b565b9450505050608086013567ffffffffffffffff8111156105b4575f5ffd5b6105c0888289016103f4565b9150509295509295909350565b602080825282518282018190525f918401906040840190835b8181101561060d5783516001600160a01b03168352602093840193909201916001016105e6565b509095945050505050565b5f60208284031215610628575f5ffd5b5035919050565b5f6020828403121561063f575f5ffd5b8151801515811461064e575f5ffd5b9392505050565b5f82825180855260208501945060208160051b830101602085015f5b838110156106c357601f19858403018852815180518085528060208301602087015e5f602082870101526020601f19601f83011686010194505050602082019150602088019750600181019050610671565b50909695505050505050565b6001600160a01b0387811682528681166020808401919091528682166040840152908516606083015260c06080830181905284519083018190525f9185019060e0840190835b81811015610733578351835260209384019390920191600101610715565b505083810360a08501526107478186610655565b9a9950505050505050505050565b5f60208284031215610765575f5ffd5b505191905056fe610100604052348015610010575f5ffd5b50604051611bb5380380611bb583398101604081905261002f91610453565b60015f556001600160a01b0386161580159061005357506001600160a01b03851615155b6100b05760405162461bcd60e51b815260206004820152602360248201527f455343524f573a20496e76616c6964207061727469636970616e74206164647260448201526265737360e81b60648201526084015b60405180910390fd5b80518251146101105760405162461bcd60e51b815260206004820152602660248201527f455343524f573a20496e707574206172726179206c656e67746873206d757374604482015265040dac2e8c6d60d31b60648201526084016100a7565b6001600160a01b0386811660a05285811660c05284811660e05283166080526001805460ff191690555f5b82518110156102db575f83828151811061015757610157610563565b6020026020010151116101bd5760405162461bcd60e51b815260206004820152602860248201527f455343524f573a205061796f7574206d7573742062652067726561746572207460448201526768616e207a65726f60c01b60648201526084016100a7565b600260405180608001604052808584815181106101dc576101dc610563565b602002602001015181526020018484815181106101fb576101fb610563565b6020026020010151815260200160405180602001604052805f81525081526020015f600281111561022e5761022e61054f565b90528154600181810184555f938452602093849020835160049093020191825592820151919290919082019061026490826105fb565b506040820151600282019061027990826105fb565b50606082015160038201805460ff1916600183600281111561029d5761029d61054f565b021790555050508281815181106102b6576102b6610563565b602002602001015160035f8282546102ce91906106b5565b909155505060010161013b565b505050505050506106da565b80516001600160a01b03811681146102fd575f5ffd5b919050565b634e487b7160e01b5f52604160045260245ffd5b604051601f8201601f191681016001600160401b038111828210171561033e5761033e610302565b604052919050565b5f6001600160401b0382111561035e5761035e610302565b5060051b60200190565b5f82601f830112610377575f5ffd5b815161038a61038582610346565b610316565b8082825260208201915060208360051b8601019250858311156103ab575f5ffd5b602085015b838110156104495780516001600160401b038111156103cd575f5ffd5b8601603f810188136103dd575f5ffd5b60208101516001600160401b038111156103f9576103f9610302565b61040c601f8201601f1916602001610316565b8181526040838301018a1015610420575f5ffd5b8160408401602083015e5f602083830101528086525050506020830192506020810190506103b0565b5095945050505050565b5f5f5f5f5f5f60c08789031215610468575f5ffd5b610471876102e7565b955061047f602088016102e7565b945061048d604088016102e7565b935061049b606088016102e7565b60808801519093506001600160401b038111156104b6575f5ffd5b8701601f810189136104c6575f5ffd5b80516104d461038582610346565b8082825260208201915060208360051b85010192508b8311156104f5575f5ffd5b6020840193505b828410156105175783518252602093840193909101906104fc565b60a08b0151909550925050506001600160401b03811115610536575f5ffd5b61054289828a01610368565b9150509295509295509295565b634e487b7160e01b5f52602160045260245ffd5b634e487b7160e01b5f52603260045260245ffd5b600181811c9082168061058b57607f821691505b6020821081036105a957634e487b7160e01b5f52602260045260245ffd5b50919050565b601f8211156105f657805f5260205f20601f840160051c810160208510156105d45750805b601f840160051c820191505b818110156105f3575f81556001016105e0565b50505b505050565b81516001600160401b0381111561061457610614610302565b610628816106228454610577565b846105af565b6020601f82116001811461065a575f83156106435750848201515b5f19600385901b1c1916600184901b1784556105f3565b5f84815260208120601f198516915b828110156106895787850151825560209485019460019092019101610669565b50848210156106a657868401515f19600387901b60f8161c191681555b50505050600190811b01905550565b808201808211156106d457634e487b7160e01b5f52601160045260245ffd5b92915050565b60805160a05160c05160e0516114406107755f395f81816101f6015261022301525f818161012a0152818161034b015281816105d101528181610c130152610ce401525f818160cf015281816103100152818161059f015281816106f8015281816107ed015281816108f801526109f401525f81816101cf015281816104c90152818161081b0152818161092e0152610be601526114405ff3fe608060405234801561000f575f5ffd5b50600436106100b1575f3560e01c8063c438b40f1161006e578063c438b40f14610167578063da8accf91461017a578063e89e4ed61461018d578063ef8a9235146101b0578063fc0c546a146101ca578063fe25e00a146101f1575f5ffd5b80630e33599d146100b5578063109e94cf146100ca5780631a39d8ef1461010e578063a37dda2c14610125578063a5c1674e1461014c578063a5d737ac1461015f575b5f5ffd5b6100c86100c33660046110a0565b610218565b005b6100f17f000000000000000000000000000000000000000000000000000000000000000081565b6040516001600160a01b0390911681526020015b60405180910390f35b61011760035481565b604051908152602001610105565b6100f17f000000000000000000000000000000000000000000000000000000000000000081565b6100c861015a3660046110d9565b610594565b6100c86106ed565b6100c86101753660046110d9565b6109e9565b6100c8610188366004611104565b610cd9565b6101a061019b3660046110d9565b610ec8565b6040516101059493929190611203565b6001546101bd9060ff1681565b604051610105919061124f565b6100f17f000000000000000000000000000000000000000000000000000000000000000081565b6100f17f000000000000000000000000000000000000000000000000000000000000000081565b336001600160a01b037f0000000000000000000000000000000000000000000000000000000000000000161461029f5760405162461bcd60e51b815260206004820152602160248201527f455343524f573a2043616c6c6572206973206e6f7420746865206172626974656044820152603960f91b60648201526084015b60405180910390fd5b60038060015460ff1660058111156102b9576102b96111ef565b146103065760405162461bcd60e51b815260206004820152601f60248201527f455343524f573a20496e76616c69642061677265656d656e74207374617465006044820152606401610296565b61030e611011565b7f00000000000000000000000000000000000000000000000000000000000000006001600160a01b0316826001600160a01b0316148061037f57507f00000000000000000000000000000000000000000000000000000000000000006001600160a01b0316826001600160a01b0316145b6103df5760405162461bcd60e51b815260206004820152602b60248201527f455343524f573a2057696e6e6572206d75737420626520636c69656e74206f7260448201526a10333932b2b630b731b2b960a91b6064820152608401610296565b5f600284815481106103f3576103f3611269565b5f918252602090912060049091020190506002600382015460ff16600281111561041f5761041f6111ef565b036104805760405162461bcd60e51b815260206004820152602b60248201527f455343524f573a204d696c6573746f6e6520616c726561647920617070726f7660448201526a195908185b99081c185a5960aa1b6064820152608401610296565b60038101805460ff199081166002908117909255600180549091169091179055805460405163a9059cbb60e01b81526001600160a01b03858116600483015260248201929092527f00000000000000000000000000000000000000000000000000000000000000009091169063a9059cbb906044016020604051808303815f875af1158015610511573d5f5f3e3d5ffd5b505050506040513d601f19601f82011682018060405250810190610535919061127d565b50826001600160a01b0316847fdf0baf5489595ea17a097d16827d60793e2f57f3b85a982e5d7e02838b841ee6835f015460405161057591815260200190565b60405180910390a3610585611039565b5061058f60015f55565b505050565b336001600160a01b037f00000000000000000000000000000000000000000000000000000000000000001614806105f35750336001600160a01b037f000000000000000000000000000000000000000000000000000000000000000016145b61064b5760405162461bcd60e51b8152602060048201526024808201527f455343524f573a204e6f74206120706172747920746f207468652061677265656044820152631b595b9d60e21b6064820152608401610296565b600360015460ff166005811115610664576106646111ef565b036106b15760405162461bcd60e51b815260206004820152601e60248201527f455343524f573a204469737075746520616c72656164792072616973656400006044820152606401610296565b6001805460ff19166003179055604051339082907f84a477df8a28a4276ca6dee4458a06c3015f30c477d9c949ede4e13ff8a552b4905f90a350565b336001600160a01b037f000000000000000000000000000000000000000000000000000000000000000016146107655760405162461bcd60e51b815260206004820181905260248201527f455343524f573a2043616c6c6572206973206e6f742074686520636c69656e746044820152606401610296565b5f8060015460ff16600581111561077e5761077e6111ef565b146107cb5760405162461bcd60e51b815260206004820152601f60248201527f455343524f573a20496e76616c69642061677265656d656e74207374617465006044820152606401610296565b6107d3611011565b600354604051636eb1769f60e11b81526001600160a01b037f0000000000000000000000000000000000000000000000000000000000000000811660048301523060248301527f0000000000000000000000000000000000000000000000000000000000000000169063dd62ed3e90604401602060405180830381865afa158015610860573d5f5f3e3d5ffd5b505050506040513d601f19601f8201168201806040525081019061088491906112a3565b10156108de5760405162461bcd60e51b815260206004820152602360248201527f455343524f573a20436865636b20746f6b656e20617070726f76616c20616d6f6044820152621d5b9d60ea1b6064820152608401610296565b6003546040516323b872dd60e01b81526001600160a01b037f00000000000000000000000000000000000000000000000000000000000000008116600483015230602483015260448201929092527f0000000000000000000000000000000000000000000000000000000000000000909116906323b872dd906064016020604051808303815f875af1158015610976573d5f5f3e3d5ffd5b505050506040513d601f19601f8201168201806040525081019061099a919061127d565b506001805460ff1916811790556003546040519081527fdedbe31fcfd8842a2ccb1ab927ec0ccbd3ea30eda90fa7bc43b1d3a511963cb29060200160405180910390a16109e660015f55565b50565b336001600160a01b037f00000000000000000000000000000000000000000000000000000000000000001614610a615760405162461bcd60e51b815260206004820181905260248201527f455343524f573a2043616c6c6572206973206e6f742074686520636c69656e746044820152606401610296565b610a69611011565b6001805460ff166005811115610a8157610a816111ef565b1480610aa35750600260015460ff166005811115610aa157610aa16111ef565b145b610aef5760405162461bcd60e51b815260206004820152601c60248201527f455343524f573a2041677265656d656e74206e6f7420616374697665000000006044820152606401610296565b5f60028281548110610b0357610b03611269565b5f918252602090912060049091020190506001600382015460ff166002811115610b2f57610b2f6111ef565b14610b935760405162461bcd60e51b815260206004820152602e60248201527f455343524f573a20576f726b206e6f74207375626d6974746564206f7220616c60448201526d1c9958591e48185c1c1c9bdd995960921b6064820152608401610296565b60038101805460ff191660021790556001805460ff166005811115610bba57610bba6111ef565b03610bcd576001805460ff191660021790555b805460405163a9059cbb60e01b81526001600160a01b037f0000000000000000000000000000000000000000000000000000000000000000169163a9059cbb91610c4f917f0000000000000000000000000000000000000000000000000000000000000000916004016001600160a01b03929092168252602082015260400190565b6020604051808303815f875af1158015610c6b573d5f5f3e3d5ffd5b505050506040513d601f19601f82011682018060405250810190610c8f919061127d565b50805460405190815282907f939da3b627c123c81fe5aacebf925163337a0d4f8a03724640618078cad248949060200160405180910390a2610ccf611039565b506109e660015f55565b336001600160a01b037f00000000000000000000000000000000000000000000000000000000000000001614610d5d5760405162461bcd60e51b8152602060048201526024808201527f455343524f573a2043616c6c6572206973206e6f742074686520667265656c616044820152633731b2b960e11b6064820152608401610296565b6001805460ff166005811115610d7557610d756111ef565b1480610d975750600260015460ff166005811115610d9557610d956111ef565b145b610de35760405162461bcd60e51b815260206004820152601c60248201527f455343524f573a2041677265656d656e74206e6f7420616374697665000000006044820152606401610296565b5f60028381548110610df757610df7611269565b5f918252602082206004909102019150600382015460ff166002811115610e2057610e206111ef565b14610e6d5760405162461bcd60e51b815260206004820152601e60248201527f455343524f573a20576f726b20616c7265616479207375626d697474656400006044820152606401610296565b60038101805460ff1916600117905560028101610e8a838261133d565b50827f3822c71b106c7c1dabf7f076e68c9bd98c45d0cd0d073f4dcdaf422a0fe5584783604051610ebb91906113f8565b60405180910390a2505050565b60028181548110610ed7575f80fd5b5f9182526020909120600490910201805460018201805491935090610efb906112ba565b80601f0160208091040260200160405190810160405280929190818152602001828054610f27906112ba565b8015610f725780601f10610f4957610100808354040283529160200191610f72565b820191905f5260205f20905b815481529060010190602001808311610f5557829003601f168201915b505050505090806002018054610f87906112ba565b80601f0160208091040260200160405190810160405280929190818152602001828054610fb3906112ba565b8015610ffe5780601f10610fd557610100808354040283529160200191610ffe565b820191905f5260205f20905b815481529060010190602001808311610fe157829003601f168201915b5050506003909301549192505060ff1684565b60025f540361103357604051633ee5aeb560e01b815260040160405180910390fd5b60025f55565b5f5b60025481101561109057600280828154811061105957611059611269565b5f91825260209091206003600490920201015460ff166002811115611080576110806111ef565b146110885750565b60010161103b565b506001805460ff19166004179055565b5f5f604083850312156110b1575f5ffd5b8235915060208301356001600160a01b03811681146110ce575f5ffd5b809150509250929050565b5f602082840312156110e9575f5ffd5b5035919050565b634e487b7160e01b5f52604160045260245ffd5b5f5f60408385031215611115575f5ffd5b82359150602083013567ffffffffffffffff811115611132575f5ffd5b8301601f81018513611142575f5ffd5b803567ffffffffffffffff81111561115c5761115c6110f0565b604051601f8201601f19908116603f0116810167ffffffffffffffff8111828210171561118b5761118b6110f0565b6040528181528282016020018710156111a2575f5ffd5b816020840160208301375f602083830101528093505050509250929050565b5f81518084528060208401602086015e5f602082860101526020601f19601f83011685010191505092915050565b634e487b7160e01b5f52602160045260245ffd5b848152608060208201525f61121b60808301866111c1565b828103604084015261122d81866111c1565b91505060038310611240576112406111ef565b82606083015295945050505050565b6020810160068310611263576112636111ef565b91905290565b634e487b7160e01b5f52603260045260245ffd5b5f6020828403121561128d575f5ffd5b8151801515811461129c575f5ffd5b9392505050565b5f602082840312156112b3575f5ffd5b5051919050565b600181811c908216806112ce57607f821691505b6020821081036112ec57634e487b7160e01b5f52602260045260245ffd5b50919050565b601f82111561058f57805f5260205f20601f840160051c810160208510156113175750805b601f840160051c820191505b81811015611336575f8155600101611323565b5050505050565b815167ffffffffffffffff811115611357576113576110f0565b61136b8161136584546112ba565b846112f2565b6020601f82116001811461139d575f83156113865750848201515b5f19600385901b1c1916600184901b178455611336565b5f84815260208120601f198516915b828110156113cc57878501518255602094850194600190920191016113ac565b50848210156113e957868401515f19600387901b60f8161c191681555b50505050600190811b01905550565b602081525f61129c60208301846111c156fea2646970667358221220e713d4e41a25a60c3ee03b4a051a4a9d44929ba03ce9cb71e8cbb54babca20d964736f6c634300081c0033a26469706673582212206b62c1b8ec8c4e77d16d8f208c275e337c91e4e2ccd4d1af85d8b87527af0da064736f6c634300081c0033",
  "linkReferences": {},
  "deployedLinkReferences": {},
  "immutableReferences": {
    "1013": [
      {
        "length": 32,
        "start": 104
      },
      {
        "length": 32,
        "start": 238
      }
    ]
  },
  "inputSourceName": "project/contracts/EscrowFactory.sol",
  "buildInfoId": "solc-0_8_28-bbfaf20e4c03b36ea3084cd4a6405a6c18e741a2"
}