{
  "_format": "hh3-artifact-1",
  "contractName": "Comment",
  "sourceName": "contracts/Comment.sol",
  "abi": [
    {
      "anonymous": false,
      "inputs": [
        {
          "indexed": true,
          "internalType": "uint256",
          "name": "postId",
          "type": "uint256"
        },
        {
          "indexed": true,
          "internalType": "uint256",
          "name": "commentId",
          "type": "uint256"
        },
        {
          "indexed": true,
          "internalType": "address",
          "name": "author",
          "type": "address"
        }
      ],
      "name": "CommentCreated",
      "type": "event"
    },
    {
      "anonymous": false,
      "inputs": [
        {
          "indexed": true,
          "internalType": "uint256",
          "name": "commentId",
          "type": "uint256"
        }
      ],
      "name": "CommentDeleted",
      "type": "event"
    },
    {
      "anonymous": false,
      "inputs": [
        {
          "indexed": true,
          "internalType": "uint256",
          "name": "commentId",
          "type": "uint256"
        }
      ],
      "name": "CommentUpdated",
      "type": "event"
    },
    {
      "inputs": [
        {
          "internalType": "uint256",
          "name": "",
          "type": "uint256"
        }
      ],
      "name": "comments",
      "outputs": [
        {
          "internalType": "uint256",
          "name": "commentId",
          "type": "uint256"
        },
        {
          "internalType": "uint256",
          "name": "postId",
          "type": "uint256"
        },
        {
          "internalType": "address",
          "name": "author",
          "type": "address"
        },
        {
          "internalType": "string",
          "name": "contentHash",
          "type": "string"
        },
        {
          "internalType": "uint256",
          "name": "createdAt",
          "type": "uint256"
        },
        {
          "internalType": "uint256",
          "name": "updatedAt",
          "type": "uint256"
        },
        {
          "internalType": "bool",
          "name": "isActive",
          "type": "bool"
        }
      ],
      "stateMutability": "view",
      "type": "function"
    },
    {
      "inputs": [
        {
          "internalType": "uint256",
          "name": "_postId",
          "type": "uint256"
        },
        {
          "internalType": "string",
          "name": "_contentHash",
          "type": "string"
        }
      ],
      "name": "createComment",
      "outputs": [],
      "stateMutability": "nonpayable",
      "type": "function"
    },
    {
      "inputs": [
        {
          "internalType": "uint256",
          "name": "_commentId",
          "type": "uint256"
        }
      ],
      "name": "deleteComment",
      "outputs": [],
      "stateMutability": "nonpayable",
      "type": "function"
    },
    {
      "inputs": [
        {
          "internalType": "uint256",
          "name": "_postId",
          "type": "uint256"
        }
      ],
      "name": "getCommentsByPost",
      "outputs": [
        {
          "internalType": "uint256[]",
          "name": "",
          "type": "uint256[]"
        }
      ],
      "stateMutability": "view",
      "type": "function"
    },
    {
      "inputs": [
        {
          "internalType": "address",
          "name": "_user",
          "type": "address"
        }
      ],
      "name": "getCommentsByUser",
      "outputs": [
        {
          "internalType": "uint256[]",
          "name": "",
          "type": "uint256[]"
        }
      ],
      "stateMutability": "view",
      "type": "function"
    },
    {
      "inputs": [
        {
          "internalType": "uint256",
          "name": "",
          "type": "uint256"
        },
        {
          "internalType": "uint256",
          "name": "",
          "type": "uint256"
        }
      ],
      "name": "postComments",
      "outputs": [
        {
          "internalType": "uint256",
          "name": "",
          "type": "uint256"
        }
      ],
      "stateMutability": "view",
      "type": "function"
    },
    {
      "inputs": [
        {
          "internalType": "uint256",
          "name": "_commentId",
          "type": "uint256"
        },
        {
          "internalType": "string",
          "name": "_newContentHash",
          "type": "string"
        }
      ],
      "name": "updateComment",
      "outputs": [],
      "stateMutability": "nonpayable",
      "type": "function"
    },
    {
      "inputs": [
        {
          "internalType": "address",
          "name": "",
          "type": "address"
        },
        {
          "internalType": "uint256",
          "name": "",
          "type": "uint256"
        }
      ],
      "name": "userComments",
      "outputs": [
        {
          "internalType": "uint256",
          "name": "",
          "type": "uint256"
        }
      ],
      "stateMutability": "view",
      "type": "function"
    }
  ],
  "bytecode": "0x6080604052348015600e575f5ffd5b50610b628061001c5f395ff3fe608060405234801561000f575f5ffd5b5060043610610085575f3560e01c80637d0b1026116100585780637d0b1026146100ea5780638ebb4c15146100fd5780639e78b8a614610123578063e42cee0b14610143575f5ffd5b806340a17985146100895780635193c94c1461009e5780635b5da505146100c457806379129471146100d7575b5f5ffd5b61009c61009736600461078d565b610156565b005b6100b16100ac36600461084a565b6102fd565b6040519081526020015b60405180910390f35b61009c6100d236600461078d565b610328565b6100b16100e5366004610885565b610487565b61009c6100f83660046108ad565b6104a0565b61011061010b3660046108ad565b6105cf565b6040516100bb97969594939291906108c4565b610136610131366004610930565b6106b3565b6040516100bb9190610950565b6101366101513660046108ad565b61071c565b5f80546040805160e081018252828152602081018681523392820192835260608201868152426080840181905260a0840152600160c084018190528501865594805281517f290decd9548b62a8d60345a988386fc84ba6bc95484008f6362f93160ef3e5636007860290810191825591517f290decd9548b62a8d60345a988386fc84ba6bc95484008f6362f93160ef3e56483015592517f290decd9548b62a8d60345a988386fc84ba6bc95484008f6362f93160ef3e565820180546001600160a01b0319166001600160a01b039092169190911790559351929390927f290decd9548b62a8d60345a988386fc84ba6bc95484008f6362f93160ef3e566909101906102629082610a16565b506080820151600482015560a0820151600582015560c0909101516006909101805460ff1916911515919091179055335f81815260016020818152604080842080548085018255908552828520018690558784526002825280842080549384018155845290832090910184905551839186917fb26b28af845c655de8a0781b33321442c59fca924e20664d2d40e97a43c45f6f9190a4505050565b6002602052815f5260405f208181548110610316575f80fd5b905f5260205f20015f91509150505481565b5f54829081106103795760405162461bcd60e51b815260206004820152601760248201527621b7b6b6b2b73a103237b2b9903737ba1032bc34b9ba1760491b60448201526064015b60405180910390fd5b82336001600160a01b03165f828154811061039657610396610ad1565b5f9182526020909120600260079092020101546001600160a01b0316146103cf5760405162461bcd60e51b815260040161037090610ae5565b5f5f85815481106103e2576103e2610ad1565b5f9182526020909120600790910201600681015490915060ff166104415760405162461bcd60e51b815260206004820152601660248201527521b7b6b6b2b73a1034b9903737ba1030b1ba34bb329760511b6044820152606401610370565b6003810161044f8582610a16565b5042600582015560405185907f2c13ccb7c45eedc935448fdf1f435974a1d22bef179ca4fab414abbb31a1e4fc905f90a25050505050565b6001602052815f5260405f208181548110610316575f80fd5b5f54819081106104ec5760405162461bcd60e51b815260206004820152601760248201527621b7b6b6b2b73a103237b2b9903737ba1032bc34b9ba1760491b6044820152606401610370565b81336001600160a01b03165f828154811061050957610509610ad1565b5f9182526020909120600260079092020101546001600160a01b0316146105425760405162461bcd60e51b815260040161037090610ae5565b5f5f848154811061055557610555610ad1565b905f5260205f2090600702016006015f6101000a81548160ff021916908315150217905550425f848154811061058d5761058d610ad1565b5f918252602082206005600790920201019190915560405184917fb56539a3b332b00ffce8c0f70bfb1813db25879d5c24012911a39c74ddab8f9891a2505050565b5f81815481106105dd575f80fd5b5f918252602090912060079091020180546001820154600283015460038401805493955091936001600160a01b039091169290919061061b90610992565b80601f016020809104026020016040519081016040528092919081815260200182805461064790610992565b80156106925780601f1061066957610100808354040283529160200191610692565b820191905f5260205f20905b81548152906001019060200180831161067557829003601f168201915b50505050600483015460058401546006909401549293909290915060ff1687565b6001600160a01b0381165f9081526001602090815260409182902080548351818402810184019094528084526060939283018282801561071057602002820191905f5260205f20905b8154815260200190600101908083116106fc575b50505050509050919050565b5f8181526002602090815260409182902080548351818402810184019094528084526060939283018282801561071057602002820191905f5260205f20908154815260200190600101908083116106fc5750505050509050919050565b634e487b7160e01b5f52604160045260245ffd5b5f5f6040838503121561079e575f5ffd5b82359150602083013567ffffffffffffffff8111156107bb575f5ffd5b8301601f810185136107cb575f5ffd5b803567ffffffffffffffff8111156107e5576107e5610779565b604051601f8201601f19908116603f0116810167ffffffffffffffff8111828210171561081457610814610779565b60405281815282820160200187101561082b575f5ffd5b816020840160208301375f602083830101528093505050509250929050565b5f5f6040838503121561085b575f5ffd5b50508035926020909101359150565b80356001600160a01b0381168114610880575f5ffd5b919050565b5f5f60408385031215610896575f5ffd5b61089f8361086a565b946020939093013593505050565b5f602082840312156108bd575f5ffd5b5035919050565b87815286602082015260018060a01b038616604082015260e060608201525f85518060e0840152806020880161010085015e5f6101008285010152610100601f19601f8301168401019150508460808301528360a083015282151560c083015298975050505050505050565b5f60208284031215610940575f5ffd5b6109498261086a565b9392505050565b602080825282518282018190525f918401906040840190835b81811015610987578351835260209384019390920191600101610969565b509095945050505050565b600181811c908216806109a657607f821691505b6020821081036109c457634e487b7160e01b5f52602260045260245ffd5b50919050565b601f821115610a1157805f5260205f20601f840160051c810160208510156109ef5750805b601f840160051c820191505b81811015610a0e575f81556001016109fb565b50505b505050565b815167ffffffffffffffff811115610a3057610a30610779565b610a4481610a3e8454610992565b846109ca565b6020601f821160018114610a76575f8315610a5f5750848201515b5f19600385901b1c1916600184901b178455610a0e565b5f84815260208120601f198516915b82811015610aa55787850151825560209485019460019092019101610a85565b5084821015610ac257868401515f19600387901b60f8161c191681555b50505050600190811b01905550565b634e487b7160e01b5f52603260045260245ffd5b60208082526027908201527f596f7520617265206e6f742074686520617574686f72206f662074686973206360408201526637b6b6b2b73a1760c91b60608201526080019056fea26469706673582212200f88930d8a8a0dc9044b6691d0c7ec4231346ac7376563686aaf11eadedd122964736f6c634300081c0033",
  "linkReferences": {},
  "deployedLinkReferences": {},
  "immutableReferences": {},
  "inputSourceName": "project/contracts/Comment.sol",
  "buildInfoId": "solc-0_8_28-8c869272d72d3dd0ffc7d0e909dccd4df5828596"
}