{
  "_format": "hh3-artifact-1",
  "contractName": "Post",
  "sourceName": "contracts/Post.sol",
  "abi": [
    {
      "inputs": [
        {
          "internalType": "address",
          "name": "_tokenAddress",
          "type": "address"
        }
      ],
      "stateMutability": "nonpayable",
      "type": "constructor"
    },
    {
      "anonymous": false,
      "inputs": [
        {
          "indexed": true,
          "internalType": "uint256",
          "name": "postId",
          "type": "uint256"
        },
        {
          "indexed": true,
          "internalType": "address",
          "name": "author",
          "type": "address"
        },
        {
          "indexed": false,
          "internalType": "string",
          "name": "contentHash",
          "type": "string"
        }
      ],
      "name": "PostCreated",
      "type": "event"
    },
    {
      "anonymous": false,
      "inputs": [
        {
          "indexed": true,
          "internalType": "uint256",
          "name": "postId",
          "type": "uint256"
        }
      ],
      "name": "PostDeleted",
      "type": "event"
    },
    {
      "anonymous": false,
      "inputs": [
        {
          "indexed": true,
          "internalType": "uint256",
          "name": "postId",
          "type": "uint256"
        },
        {
          "indexed": true,
          "internalType": "address",
          "name": "tipper",
          "type": "address"
        },
        {
          "indexed": false,
          "internalType": "uint256",
          "name": "amount",
          "type": "uint256"
        }
      ],
      "name": "PostTipped",
      "type": "event"
    },
    {
      "anonymous": false,
      "inputs": [
        {
          "indexed": true,
          "internalType": "uint256",
          "name": "postId",
          "type": "uint256"
        },
        {
          "indexed": false,
          "internalType": "string",
          "name": "newContentHash",
          "type": "string"
        }
      ],
      "name": "PostUpdated",
      "type": "event"
    },
    {
      "inputs": [
        {
          "internalType": "string",
          "name": "_contentHash",
          "type": "string"
        }
      ],
      "name": "createPost",
      "outputs": [],
      "stateMutability": "nonpayable",
      "type": "function"
    },
    {
      "inputs": [
        {
          "internalType": "uint256",
          "name": "_postId",
          "type": "uint256"
        }
      ],
      "name": "deletePost",
      "outputs": [],
      "stateMutability": "nonpayable",
      "type": "function"
    },
    {
      "inputs": [
        {
          "internalType": "address",
          "name": "_user",
          "type": "address"
        }
      ],
      "name": "getPostsByUser",
      "outputs": [
        {
          "internalType": "uint256[]",
          "name": "",
          "type": "uint256[]"
        }
      ],
      "stateMutability": "view",
      "type": "function"
    },
    {
      "inputs": [],
      "name": "postCount",
      "outputs": [
        {
          "internalType": "uint256",
          "name": "",
          "type": "uint256"
        }
      ],
      "stateMutability": "view",
      "type": "function"
    },
    {
      "inputs": [
        {
          "internalType": "uint256",
          "name": "",
          "type": "uint256"
        }
      ],
      "name": "posts",
      "outputs": [
        {
          "internalType": "uint256",
          "name": "postId",
          "type": "uint256"
        },
        {
          "internalType": "address",
          "name": "author",
          "type": "address"
        },
        {
          "internalType": "string",
          "name": "contentHash",
          "type": "string"
        },
        {
          "internalType": "uint256",
          "name": "createdAt",
          "type": "uint256"
        },
        {
          "internalType": "uint256",
          "name": "updatedAt",
          "type": "uint256"
        },
        {
          "internalType": "uint256",
          "name": "tipJar",
          "type": "uint256"
        },
        {
          "internalType": "bool",
          "name": "isActive",
          "type": "bool"
        }
      ],
      "stateMutability": "view",
      "type": "function"
    },
    {
      "inputs": [],
      "name": "socialToken",
      "outputs": [
        {
          "internalType": "contract IERC20",
          "name": "",
          "type": "address"
        }
      ],
      "stateMutability": "view",
      "type": "function"
    },
    {
      "inputs": [
        {
          "internalType": "uint256",
          "name": "_postId",
          "type": "uint256"
        },
        {
          "internalType": "uint256",
          "name": "_amount",
          "type": "uint256"
        }
      ],
      "name": "tipPost",
      "outputs": [],
      "stateMutability": "nonpayable",
      "type": "function"
    },
    {
      "inputs": [
        {
          "internalType": "uint256",
          "name": "_postId",
          "type": "uint256"
        },
        {
          "internalType": "string",
          "name": "_newContentHash",
          "type": "string"
        }
      ],
      "name": "updatePost",
      "outputs": [],
      "stateMutability": "nonpayable",
      "type": "function"
    },
    {
      "inputs": [
        {
          "internalType": "address",
          "name": "",
          "type": "address"
        },
        {
          "internalType": "uint256",
          "name": "",
          "type": "uint256"
        }
      ],
      "name": "userPosts",
      "outputs": [
        {
          "internalType": "uint256",
          "name": "",
          "type": "uint256"
        }
      ],
      "stateMutability": "view",
      "type": "function"
    }
  ],
  "bytecode": "0x6080604052348015600e575f5ffd5b50604051610e83380380610e83833981016040819052602b91604e565b5f80546001600160a01b0319166001600160a01b03929092169190911790556079565b5f60208284031215605d575f5ffd5b81516001600160a01b03811681146072575f5ffd5b9392505050565b610dfd806100865f395ff3fe608060405234801561000f575f5ffd5b5060043610610090575f3560e01c80638064d149116100635780638064d1491461010a57806399409ae11461011d578063b406db9b14610147578063c06585bb1461015a578063c7303c611461016d575f5ffd5b8063094cd5ee146100945780630b1e7f83146100a957806317906c2e146100d857806328538949146100ea575b5f5ffd5b6100a76100a2366004610934565b610180565b005b6100bc6100b7366004610934565b610292565b6040516100cf9796959493929190610979565b60405180910390f35b6001545b6040519081526020016100cf565b6100fd6100f83660046109e5565b610373565b6040516100cf9190610a05565b6100dc610118366004610a47565b6103dc565b5f5461012f906001600160a01b031681565b6040516001600160a01b0390911681526020016100cf565b6100a7610155366004610b0e565b610407565b6100a7610168366004610b52565b610569565b6100a761017b366004610b72565b6107b3565b600154819081106101ac5760405162461bcd60e51b81526004016101a390610bac565b60405180910390fd5b81336001600160a01b0316600182815481106101ca576101ca610bda565b5f9182526020909120600160079092020101546001600160a01b0316146102035760405162461bcd60e51b81526004016101a390610bee565b5f6001848154811061021757610217610bda565b905f5260205f2090600702016006015f6101000a81548160ff021916908315150217905550426001848154811061025057610250610bda565b5f918252602082206004600790920201019190915560405184917f32d67e2131cd025eb20e7256680e338dedbe17b28943a11681860a9271ad119d91a2505050565b600181815481106102a1575f80fd5b5f9182526020909120600790910201805460018201546002830180549294506001600160a01b0390911692916102d690610c32565b80601f016020809104026020016040519081016040528092919081815260200182805461030290610c32565b801561034d5780601f106103245761010080835404028352916020019161034d565b820191905f5260205f20905b81548152906001019060200180831161033057829003601f168201915b505050506003830154600484015460058501546006909501549394919390925060ff1687565b6001600160a01b0381165f908152600260209081526040918290208054835181840281018401909452808452606093928301828280156103d057602002820191905f5260205f20905b8154815260200190600101908083116103bc575b50505050509050919050565b6002602052815f5260405f2081815481106103f5575f80fd5b905f5260205f20015f91509150505481565b6001548290811061042a5760405162461bcd60e51b81526004016101a390610bac565b82336001600160a01b03166001828154811061044857610448610bda565b5f9182526020909120600160079092020101546001600160a01b0316146104815760405162461bcd60e51b81526004016101a390610bee565b836001818154811061049557610495610bda565b5f91825260209091206006600790920201015460ff166104ed5760405162461bcd60e51b81526020600482015260136024820152722837b9ba1034b9903737ba1030b1ba34bb329760691b60448201526064016101a3565b5f6001868154811061050157610501610bda565b905f5260205f2090600702019050848160020190816105209190610cb6565b5042600482015560405186907f1543455326671a5cec34d2f18ecc36e6b7370311acb09f402d53493726f2923790610559908890610d71565b60405180910390a2505050505050565b6001548290811061058c5760405162461bcd60e51b81526004016101a390610bac565b82600181815481106105a0576105a0610bda565b5f91825260209091206006600790920201015460ff166105f85760405162461bcd60e51b81526020600482015260136024820152722837b9ba1034b9903737ba1030b1ba34bb329760691b60448201526064016101a3565b5f83116106555760405162461bcd60e51b815260206004820152602560248201527f54697020616d6f756e74206d7573742062652067726561746572207468616e206044820152643d32b9379760d91b60648201526084016101a3565b5f6001858154811061066957610669610bda565b5f9182526020822082546007929092020160018101546040516323b872dd60e01b81523360048201526001600160a01b03918216602482015260448101899052919450909116906323b872dd906064016020604051808303815f875af11580156106d5573d5f5f3e3d5ffd5b505050506040513d601f19601f820116820180604052508101906106f99190610d83565b90508061075c5760405162461bcd60e51b815260206004820152602b60248201527f546f6b656e207472616e73666572206661696c65642e20436865636b20796f7560448201526a391030b8383937bb30b61760a91b60648201526084016101a3565b84826005015f82825461076f9190610da2565b9091555050604051858152339087907f4db8afe9bce39012f1b036566400165e4630e1d714b2a6f7339a4adcdfb16c3d9060200160405180910390a3505050505050565b600180546040805160e0810182528281523360208201908152918101858152426060830181905260808301525f60a0830181905260c0830186905284860186559490945280517fb10e2d527612073b26eecdfd717e6a320cf44b4afac2b0732d9fcbe2b7fa0cf66007850290810191825592517fb10e2d527612073b26eecdfd717e6a320cf44b4afac2b0732d9fcbe2b7fa0cf7840180546001600160a01b0319166001600160a01b0390921691909117905593519293909290917fb10e2d527612073b26eecdfd717e6a320cf44b4afac2b0732d9fcbe2b7fa0cf8019061089b9082610cb6565b50606082015160038201556080820151600482015560a0820151600582015560c0909101516006909101805460ff1916911515919091179055335f818152600260209081526040808320805460018101825590845291909220018390555182907f8e40a51278abe2f4b410c0a96ff0bdd024b22666ca334062bf72afd596984bd690610928908690610d71565b60405180910390a35050565b5f60208284031215610944575f5ffd5b5035919050565b5f81518084528060208401602086015e5f602082860101526020601f19601f83011685010191505092915050565b8781526001600160a01b038716602082015260e0604082018190525f906109a29083018861094b565b90508560608301528460808301528360a083015282151560c083015298975050505050505050565b80356001600160a01b03811681146109e0575f5ffd5b919050565b5f602082840312156109f5575f5ffd5b6109fe826109ca565b9392505050565b602080825282518282018190525f918401906040840190835b81811015610a3c578351835260209384019390920191600101610a1e565b509095945050505050565b5f5f60408385031215610a58575f5ffd5b610a61836109ca565b946020939093013593505050565b634e487b7160e01b5f52604160045260245ffd5b5f82601f830112610a92575f5ffd5b813567ffffffffffffffff811115610aac57610aac610a6f565b604051601f8201601f19908116603f0116810167ffffffffffffffff81118282101715610adb57610adb610a6f565b604052818152838201602001851015610af2575f5ffd5b816020850160208301375f918101602001919091529392505050565b5f5f60408385031215610b1f575f5ffd5b82359150602083013567ffffffffffffffff811115610b3c575f5ffd5b610b4885828601610a83565b9150509250929050565b5f5f60408385031215610b63575f5ffd5b50508035926020909101359150565b5f60208284031215610b82575f5ffd5b813567ffffffffffffffff811115610b98575f5ffd5b610ba484828501610a83565b949350505050565b6020808252601490820152732837b9ba103237b2b9903737ba1032bc34b9ba1760611b604082015260600190565b634e487b7160e01b5f52603260045260245ffd5b60208082526024908201527f596f7520617265206e6f742074686520617574686f72206f662074686973207060408201526337b9ba1760e11b606082015260800190565b600181811c90821680610c4657607f821691505b602082108103610c6457634e487b7160e01b5f52602260045260245ffd5b50919050565b601f821115610cb157805f5260205f20601f840160051c81016020851015610c8f5750805b601f840160051c820191505b81811015610cae575f8155600101610c9b565b50505b505050565b815167ffffffffffffffff811115610cd057610cd0610a6f565b610ce481610cde8454610c32565b84610c6a565b6020601f821160018114610d16575f8315610cff5750848201515b5f19600385901b1c1916600184901b178455610cae565b5f84815260208120601f198516915b82811015610d455787850151825560209485019460019092019101610d25565b5084821015610d6257868401515f19600387901b60f8161c191681555b50505050600190811b01905550565b602081525f6109fe602083018461094b565b5f60208284031215610d93575f5ffd5b815180151581146109fe575f5ffd5b80820180821115610dc157634e487b7160e01b5f52601160045260245ffd5b9291505056fea2646970667358221220d6efb841d7296ce32dd1c20e44ba3f77de49a0b91b766f1f467a586020b5074564736f6c634300081c0033",
  "linkReferences": {},
  "deployedLinkReferences": {},
  "immutableReferences": {},
  "inputSourceName": "project/contracts/Post.sol",
  "buildInfoId": "solc-0_8_28-fe4e377070b239ed1d6fe4e5e8acbaaed355ed31"
}