{
  "_format": "hh3-artifact-1",
  "contractName": "ArbiterRegistry",
  "sourceName": "contracts/ArbiterRegistry.sol",
  "abi": [
    {
      "inputs": [],
      "stateMutability": "nonpayable",
      "type": "constructor"
    },
    {
      "inputs": [
        {
          "internalType": "address",
          "name": "owner",
          "type": "address"
        }
      ],
      "name": "OwnableInvalidOwner",
      "type": "error"
    },
    {
      "inputs": [
        {
          "internalType": "address",
          "name": "account",
          "type": "address"
        }
      ],
      "name": "OwnableUnauthorizedAccount",
      "type": "error"
    },
    {
      "anonymous": false,
      "inputs": [
        {
          "indexed": true,
          "internalType": "address",
          "name": "arbiterAddress",
          "type": "address"
        },
        {
          "indexed": false,
          "internalType": "string",
          "name": "name",
          "type": "string"
        }
      ],
      "name": "ArbiterAdded",
      "type": "event"
    },
    {
      "anonymous": false,
      "inputs": [
        {
          "indexed": true,
          "internalType": "address",
          "name": "arbiterAddress",
          "type": "address"
        }
      ],
      "name": "ArbiterRemoved",
      "type": "event"
    },
    {
      "anonymous": false,
      "inputs": [
        {
          "indexed": true,
          "internalType": "address",
          "name": "previousOwner",
          "type": "address"
        },
        {
          "indexed": true,
          "internalType": "address",
          "name": "newOwner",
          "type": "address"
        }
      ],
      "name": "OwnershipTransferred",
      "type": "event"
    },
    {
      "inputs": [
        {
          "internalType": "address",
          "name": "_arbiterAddress",
          "type": "address"
        },
        {
          "internalType": "string",
          "name": "_name",
          "type": "string"
        },
        {
          "internalType": "string",
          "name": "_profileHash",
          "type": "string"
        }
      ],
      "name": "addArbiter",
      "outputs": [],
      "stateMutability": "nonpayable",
      "type": "function"
    },
    {
      "inputs": [
        {
          "internalType": "uint256",
          "name": "",
          "type": "uint256"
        }
      ],
      "name": "arbiterList",
      "outputs": [
        {
          "internalType": "address",
          "name": "",
          "type": "address"
        }
      ],
      "stateMutability": "view",
      "type": "function"
    },
    {
      "inputs": [
        {
          "internalType": "address",
          "name": "",
          "type": "address"
        }
      ],
      "name": "arbiters",
      "outputs": [
        {
          "internalType": "string",
          "name": "name",
          "type": "string"
        },
        {
          "internalType": "string",
          "name": "profileHash",
          "type": "string"
        },
        {
          "internalType": "bool",
          "name": "isActive",
          "type": "bool"
        }
      ],
      "stateMutability": "view",
      "type": "function"
    },
    {
      "inputs": [
        {
          "internalType": "address",
          "name": "_arbiterAddress",
          "type": "address"
        }
      ],
      "name": "isArbiterActive",
      "outputs": [
        {
          "internalType": "bool",
          "name": "",
          "type": "bool"
        }
      ],
      "stateMutability": "view",
      "type": "function"
    },
    {
      "inputs": [],
      "name": "owner",
      "outputs": [
        {
          "internalType": "address",
          "name": "",
          "type": "address"
        }
      ],
      "stateMutability": "view",
      "type": "function"
    },
    {
      "inputs": [
        {
          "internalType": "address",
          "name": "_arbiterAddress",
          "type": "address"
        }
      ],
      "name": "removeArbiter",
      "outputs": [],
      "stateMutability": "nonpayable",
      "type": "function"
    },
    {
      "inputs": [],
      "name": "renounceOwnership",
      "outputs": [],
      "stateMutability": "nonpayable",
      "type": "function"
    },
    {
      "inputs": [
        {
          "internalType": "address",
          "name": "newOwner",
          "type": "address"
        }
      ],
      "name": "transferOwnership",
      "outputs": [],
      "stateMutability": "nonpayable",
      "type": "function"
    }
  ],
  "bytecode": "0x6080604052348015600e575f5ffd5b503380603357604051631e4fbdf760e01b81525f600482015260240160405180910390fd5b603a81603f565b50608e565b5f80546001600160a01b038381166001600160a01b0319831681178455604051919092169283917f8be0079c531659141344cd1fd0a4f28419497f9722a3daafe3b4186f6b6457e09190a35050565b6109228061009b5f395ff3fe608060405234801561000f575f5ffd5b5060043610610085575f3560e01c8063741412661161005857806374141266146100fc5780637bf2bb10146101275780638da5cb5b14610149578063f2fde38b14610159575f5ffd5b806328701a5e146100895780633487e08c1461009e57806343d9e184146100b1578063715018a6146100f4575b5f5ffd5b61009c61009736600461068b565b61016c565b005b61009c6100ac3660046106ff565b6102da565b6100df6100bf3660046106ff565b6001600160a01b03165f9081526001602052604090206002015460ff1690565b60405190151581526020015b60405180910390f35b61009c6103ae565b61010f61010a36600461071f565b6103c1565b6040516001600160a01b0390911681526020016100eb565b61013a6101353660046106ff565b6103e9565b6040516100eb93929190610764565b5f546001600160a01b031661010f565b61009c6101673660046106ff565b610519565b610174610556565b6001600160a01b0383165f9081526001602052604090206002015460ff16156101e45760405162461bcd60e51b815260206004820152601760248201527f4172626974657220616c7265616479206578697374732e00000000000000000060448201526064015b60405180910390fd5b60408051606081018252838152602080820184905260018284018190526001600160a01b0387165f90815291529190912081518190610223908261081f565b5060208201516001820190610238908261081f565b506040918201516002918201805460ff191691151591909117905580546001810182555f919091527f405787fa12a823e0f2b7631cc41b3ba8828b3321ca811111fa75cd3aa3bb5ace0180546001600160a01b0319166001600160a01b03861690811790915590517ffe448d1ca19e4b49d3307b9cf069491a971d305e5da0ff6ea25f1cfdfc2264b9906102cd9085906108da565b60405180910390a2505050565b6102e2610556565b6001600160a01b0381165f9081526001602052604090206002015460ff166103635760405162461bcd60e51b815260206004820152602e60248201527f4172626974657220646f6573206e6f74206578697374206f7220697320616c7260448201526d32b0b23c9034b730b1ba34bb329760911b60648201526084016101db565b6001600160a01b0381165f81815260016020526040808220600201805460ff19169055517fb7a0f68489d6e103758c5896f7f700d18e1e9213039ef12daf1c81a88b1ce6719190a250565b6103b6610556565b6103bf5f610582565b565b600281815481106103d0575f80fd5b5f918252602090912001546001600160a01b0316905081565b60016020525f90815260409020805481906104039061079b565b80601f016020809104026020016040519081016040528092919081815260200182805461042f9061079b565b801561047a5780601f106104515761010080835404028352916020019161047a565b820191905f5260205f20905b81548152906001019060200180831161045d57829003601f168201915b50505050509080600101805461048f9061079b565b80601f01602080910402602001604051908101604052809291908181526020018280546104bb9061079b565b80156105065780601f106104dd57610100808354040283529160200191610506565b820191905f5260205f20905b8154815290600101906020018083116104e957829003601f168201915b5050506002909301549192505060ff1683565b610521610556565b6001600160a01b03811661054a57604051631e4fbdf760e01b81525f60048201526024016101db565b61055381610582565b50565b5f546001600160a01b031633146103bf5760405163118cdaa760e01b81523360048201526024016101db565b5f80546001600160a01b038381166001600160a01b0319831681178455604051919092169283917f8be0079c531659141344cd1fd0a4f28419497f9722a3daafe3b4186f6b6457e09190a35050565b80356001600160a01b03811681146105e7575f5ffd5b919050565b634e487b7160e01b5f52604160045260245ffd5b5f82601f83011261060f575f5ffd5b813567ffffffffffffffff811115610629576106296105ec565b604051601f8201601f19908116603f0116810167ffffffffffffffff81118282101715610658576106586105ec565b60405281815283820160200185101561066f575f5ffd5b816020850160208301375f918101602001919091529392505050565b5f5f5f6060848603121561069d575f5ffd5b6106a6846105d1565b9250602084013567ffffffffffffffff8111156106c1575f5ffd5b6106cd86828701610600565b925050604084013567ffffffffffffffff8111156106e9575f5ffd5b6106f586828701610600565b9150509250925092565b5f6020828403121561070f575f5ffd5b610718826105d1565b9392505050565b5f6020828403121561072f575f5ffd5b5035919050565b5f81518084528060208401602086015e5f602082860101526020601f19601f83011685010191505092915050565b606081525f6107766060830186610736565b82810360208401526107888186610736565b9150508215156040830152949350505050565b600181811c908216806107af57607f821691505b6020821081036107cd57634e487b7160e01b5f52602260045260245ffd5b50919050565b601f82111561081a57805f5260205f20601f840160051c810160208510156107f85750805b601f840160051c820191505b81811015610817575f8155600101610804565b50505b505050565b815167ffffffffffffffff811115610839576108396105ec565b61084d81610847845461079b565b846107d3565b6020601f82116001811461087f575f83156108685750848201515b5f19600385901b1c1916600184901b178455610817565b5f84815260208120601f198516915b828110156108ae578785015182556020948501946001909201910161088e565b50848210156108cb57868401515f19600387901b60f8161c191681555b50505050600190811b01905550565b602081525f610718602083018461073656fea2646970667358221220ce8e4f9b9ccc40feb90538c83bbff7779222933fa670a82a0aa3c77c87b7fd1f64736f6c634300081c0033",
  "linkReferences": {},
  "deployedLinkReferences": {},
  "immutableReferences": {},
  "inputSourceName": "project/contracts/ArbiterRegistry.sol",
  "buildInfoId": "solc-0_8_28-95e31e18c73e971107e3951481c66042b019ac99"
}