{
  "_format": "hh3-artifact-1",
  "contractName": "UserProfile",
  "sourceName": "contracts/UserProfile.sol",
  "abi": [
    {
      "anonymous": false,
      "inputs": [
        {
          "indexed": true,
          "internalType": "address",
          "name": "user",
          "type": "address"
        }
      ],
      "name": "ProfileDeleted",
      "type": "event"
    },
    {
      "anonymous": false,
      "inputs": [
        {
          "indexed": true,
          "internalType": "address",
          "name": "user",
          "type": "address"
        },
        {
          "indexed": false,
          "internalType": "string",
          "name": "username",
          "type": "string"
        },
        {
          "indexed": false,
          "internalType": "string",
          "name": "bio",
          "type": "string"
        },
        {
          "indexed": false,
          "internalType": "string",
          "name": "profileImageHash",
          "type": "string"
        }
      ],
      "name": "ProfileUpdated",
      "type": "event"
    },
    {
      "inputs": [],
      "name": "deleteProfile",
      "outputs": [],
      "stateMutability": "nonpayable",
      "type": "function"
    },
    {
      "inputs": [
        {
          "internalType": "address",
          "name": "_user",
          "type": "address"
        }
      ],
      "name": "getProfile",
      "outputs": [
        {
          "components": [
            {
              "internalType": "string",
              "name": "username",
              "type": "string"
            },
            {
              "internalType": "string",
              "name": "bio",
              "type": "string"
            },
            {
              "internalType": "string",
              "name": "profileImageHash",
              "type": "string"
            },
            {
              "internalType": "bool",
              "name": "isActive",
              "type": "bool"
            }
          ],
          "internalType": "struct UserProfile.Profile",
          "name": "",
          "type": "tuple"
        }
      ],
      "stateMutability": "view",
      "type": "function"
    },
    {
      "inputs": [
        {
          "internalType": "address",
          "name": "",
          "type": "address"
        }
      ],
      "name": "profiles",
      "outputs": [
        {
          "internalType": "string",
          "name": "username",
          "type": "string"
        },
        {
          "internalType": "string",
          "name": "bio",
          "type": "string"
        },
        {
          "internalType": "string",
          "name": "profileImageHash",
          "type": "string"
        },
        {
          "internalType": "bool",
          "name": "isActive",
          "type": "bool"
        }
      ],
      "stateMutability": "view",
      "type": "function"
    },
    {
      "inputs": [
        {
          "internalType": "string",
          "name": "_username",
          "type": "string"
        },
        {
          "internalType": "string",
          "name": "_bio",
          "type": "string"
        },
        {
          "internalType": "string",
          "name": "_profileImageHash",
          "type": "string"
        }
      ],
      "name": "setProfile",
      "outputs": [],
      "stateMutability": "nonpayable",
      "type": "function"
    }
  ],
  "bytecode": "0x6080604052348015600e575f5ffd5b506109888061001c5f395ff3fe608060405234801561000f575f5ffd5b506004361061004a575f3560e01c80630f53a4701461004e57806352640314146100775780636d4540eb1461008c578063bbe1562714610094575b5f5ffd5b61006161005c36600461058e565b6100b7565b60405161006e91906105e9565b60405180910390f35b61008a6100853660046106f7565b6102cb565b005b61008a610391565b6100a76100a236600461058e565b6103d2565b60405161006e9493929190610785565b6100e360405180608001604052806060815260200160608152602001606081526020015f151581525090565b6001600160a01b0382165f9081526020819052604090819020815160808101909252805482908290610114906107d1565b80601f0160208091040260200160405190810160405280929190818152602001828054610140906107d1565b801561018b5780601f106101625761010080835404028352916020019161018b565b820191905f5260205f20905b81548152906001019060200180831161016e57829003601f168201915b505050505081526020016001820180546101a4906107d1565b80601f01602080910402602001604051908101604052809291908181526020018280546101d0906107d1565b801561021b5780601f106101f25761010080835404028352916020019161021b565b820191905f5260205f20905b8154815290600101906020018083116101fe57829003601f168201915b50505050508152602001600282018054610234906107d1565b80601f0160208091040260200160405190810160405280929190818152602001828054610260906107d1565b80156102ab5780601f10610282576101008083540402835291602001916102ab565b820191905f5260205f20905b81548152906001019060200180831161028e57829003601f168201915b50505091835250506003919091015460ff16151560209091015292915050565b60408051608081018252848152602080820185905281830184905260016060830152335f9081529081905291909120815181906103089082610855565b506020820151600182019061031d9082610855565b50604082015160028201906103329082610855565b50606091909101516003909101805460ff191691151591909117905560405133907f6420daf1b58438e85465ef21dee378d307a509caab491149e3f066c5caf1266d9061038490869086908690610910565b60405180910390a2505050565b335f81815260208190526040808220600301805460ff19169055517f517b492f6c7db035d7c3c4fa1ce0cb2d05e1f24219256f50fbab78242e544c049190a2565b5f602081905290815260409020805481906103ec906107d1565b80601f0160208091040260200160405190810160405280929190818152602001828054610418906107d1565b80156104635780601f1061043a57610100808354040283529160200191610463565b820191905f5260205f20905b81548152906001019060200180831161044657829003601f168201915b505050505090806001018054610478906107d1565b80601f01602080910402602001604051908101604052809291908181526020018280546104a4906107d1565b80156104ef5780601f106104c6576101008083540402835291602001916104ef565b820191905f5260205f20905b8154815290600101906020018083116104d257829003601f168201915b505050505090806002018054610504906107d1565b80601f0160208091040260200160405190810160405280929190818152602001828054610530906107d1565b801561057b5780601f106105525761010080835404028352916020019161057b565b820191905f5260205f20905b81548152906001019060200180831161055e57829003601f168201915b5050506003909301549192505060ff1684565b5f6020828403121561059e575f5ffd5b81356001600160a01b03811681146105b4575f5ffd5b9392505050565b5f81518084528060208401602086015e5f602082860101526020601f19601f83011685010191505092915050565b602081525f82516080602084015261060460a08401826105bb565b90506020840151601f1984830301604085015261062182826105bb565b9150506040840151601f1984830301606085015261063f82826105bb565b9150506060840151151560808401528091505092915050565b634e487b7160e01b5f52604160045260245ffd5b5f82601f83011261067b575f5ffd5b813567ffffffffffffffff81111561069557610695610658565b604051601f8201601f19908116603f0116810167ffffffffffffffff811182821017156106c4576106c4610658565b6040528181528382016020018510156106db575f5ffd5b816020850160208301375f918101602001919091529392505050565b5f5f5f60608486031215610709575f5ffd5b833567ffffffffffffffff81111561071f575f5ffd5b61072b8682870161066c565b935050602084013567ffffffffffffffff811115610747575f5ffd5b6107538682870161066c565b925050604084013567ffffffffffffffff81111561076f575f5ffd5b61077b8682870161066c565b9150509250925092565b608081525f61079760808301876105bb565b82810360208401526107a981876105bb565b905082810360408401526107bd81866105bb565b915050821515606083015295945050505050565b600181811c908216806107e557607f821691505b60208210810361080357634e487b7160e01b5f52602260045260245ffd5b50919050565b601f82111561085057805f5260205f20601f840160051c8101602085101561082e5750805b601f840160051c820191505b8181101561084d575f815560010161083a565b50505b505050565b815167ffffffffffffffff81111561086f5761086f610658565b6108838161087d84546107d1565b84610809565b6020601f8211600181146108b5575f831561089e5750848201515b5f19600385901b1c1916600184901b17845561084d565b5f84815260208120601f198516915b828110156108e457878501518255602094850194600190920191016108c4565b508482101561090157868401515f19600387901b60f8161c191681555b50505050600190811b01905550565b606081525f61092260608301866105bb565b828103602084015261093481866105bb565b9050828103604084015261094881856105bb565b969550505050505056fea2646970667358221220905d8e70d03918cf5d2ccc17cfad175750fe301500d12321ba0ea3d011011fd364736f6c634300081c0033",
  "linkReferences": {},
  "deployedLinkReferences": {},
  "immutableReferences": {},
  "inputSourceName": "project/contracts/UserProfile.sol",
  "buildInfoId": "solc-0_8_28-f0bfe4333d44c50a0d97df9010b09717cb677022"
}