{
  "_format": "hh3-artifact-1",
  "contractName": "EscrowFactory",
  "sourceName": "contracts/EscrowFactory.sol",
  "abi": [
    {
      "inputs": [
        {
          "internalType": "address",
          "name": "_arbiterRegistryAddress",
          "type": "address"
        }
      ],
      "stateMutability": "nonpayable",
      "type": "constructor"
    },
    {
      "anonymous": false,
      "inputs": [
        {
          "indexed": true,
          "internalType": "address",
          "name": "escrowAddress",
          "type": "address"
        },
        {
          "indexed": true,
          "internalType": "address",
          "name": "client",
          "type": "address"
        },
        {
          "indexed": true,
          "internalType": "address",
          "name": "freelancer",
          "type": "address"
        },
        {
          "indexed": false,
          "internalType": "uint256",
          "name": "totalAmount",
          "type": "uint256"
        }
      ],
      "name": "EscrowCreated",
      "type": "event"
    },
    {
      "inputs": [],
      "name": "arbiterRegistry",
      "outputs": [
        {
          "internalType": "contract ArbiterRegistry",
          "name": "",
          "type": "address"
        }
      ],
      "stateMutability": "view",
      "type": "function"
    },
    {
      "inputs": [
        {
          "internalType": "address",
          "name": "_freelancer",
          "type": "address"
        },
        {
          "internalType": "address",
          "name": "_arbiter",
          "type": "address"
        },
        {
          "internalType": "address",
          "name": "_tokenAddress",
          "type": "address"
        },
        {
          "internalType": "uint256",
          "name": "_amount",
          "type": "uint256"
        },
        {
          "internalType": "string",
          "name": "_projectDescription",
          "type": "string"
        }
      ],
      "name": "createEscrow",
      "outputs": [],
      "stateMutability": "nonpayable",
      "type": "function"
    },
    {
      "inputs": [
        {
          "internalType": "uint256",
          "name": "",
          "type": "uint256"
        }
      ],
      "name": "escrowContracts",
      "outputs": [
        {
          "internalType": "address",
          "name": "",
          "type": "address"
        }
      ],
      "stateMutability": "view",
      "type": "function"
    },
    {
      "inputs": [],
      "name": "getEscrowContracts",
      "outputs": [
        {
          "internalType": "address[]",
          "name": "",
          "type": "address[]"
        }
      ],
      "stateMutability": "view",
      "type": "function"
    },
    {
      "inputs": [],
      "name": "getEscrowCount",
      "outputs": [
        {
          "internalType": "uint256",
          "name": "",
          "type": "uint256"
        }
      ],
      "stateMutability": "view",
      "type": "function"
    },
    {
      "inputs": [
        {
          "internalType": "address",
          "name": "user",
          "type": "address"
        }
      ],
      "name": "getUserEscrows",
      "outputs": [
        {
          "internalType": "address[]",
          "name": "",
          "type": "address[]"
        }
      ],
      "stateMutability": "view",
      "type": "function"
    }
  ],
  "bytecode": "0x60a060405234801561000f575f5ffd5b5060405161222338038061222383398101604081905261002e916100a4565b6001600160a01b0381166100935760405162461bcd60e51b815260206004820152602260248201527f464143544f52593a20496e76616c696420726567697374727920616464726573604482015261399760f11b606482015260840160405180910390fd5b6001600160a01b03166080526100d1565b5f602082840312156100b4575f5ffd5b81516001600160a01b03811681146100ca575f5ffd5b9392505050565b6080516121346100ef5f395f8181607e015261041501526121345ff3fe608060405234801561000f575f5ffd5b5060043610610060575f3560e01c806316b15135146100645780632535896a146100795780632f3b703f146100b85780635ccea85e146100cd5780637c61759b146100e0578063d0e2dfba146100f5575b5f5ffd5b5f546040519081526020015b60405180910390f35b6100a07f000000000000000000000000000000000000000000000000000000000000000081565b6040516001600160a01b039091168152602001610070565b6100c0610108565b60405161007091906105dc565b6100c06100db36600461063e565b610167565b6100f36100ee366004610674565b6103f6565b005b6100a0610103366004610767565b6105a8565b60605f80548060200260200160405190810160405280929190818152602001828054801561015d57602002820191905f5260205f20905b81546001600160a01b0316815260019091019060200180831161013f575b5050505050905090565b5f80546060919067ffffffffffffffff81111561018657610186610660565b6040519080825280602002602001820160405280156101af578160200160208202803683370190505b5090505f805b5f54811015610350575f5f82815481106101d1576101d161077e565b905f5260205f20015f9054906101000a90046001600160a01b03169050856001600160a01b0316816001600160a01b031663109e94cf6040518163ffffffff1660e01b8152600401602060405180830381865afa158015610234573d5f5f3e3d5ffd5b505050506040513d601f19601f820116820180604052508101906102589190610792565b6001600160a01b031614806102dd5750856001600160a01b0316816001600160a01b031663a37dda2c6040518163ffffffff1660e01b8152600401602060405180830381865afa1580156102ae573d5f5f3e3d5ffd5b505050506040513d601f19601f820116820180604052508101906102d29190610792565b6001600160a01b0316145b15610347575f82815481106102f4576102f461077e565b905f5260205f20015f9054906101000a90046001600160a01b03168484815181106103215761032161077e565b6001600160a01b039092166020928302919091019091015282610343816107ad565b9350505b506001016101b5565b505f8167ffffffffffffffff81111561036b5761036b610660565b604051908082528060200260200182016040528015610394578160200160208202803683370190505b5090505f5b828110156103ed578381815181106103b3576103b361077e565b60200260200101518282815181106103cd576103cd61077e565b6001600160a01b0390921660209283029190910190910152600101610399565b50949350505050565b6040516310f6786160e21b81526001600160a01b0385811660048301527f000000000000000000000000000000000000000000000000000000000000000016906343d9e18490602401602060405180830381865afa15801561045a573d5f5f3e3d5ffd5b505050506040513d601f19601f8201168201806040525081019061047e91906107d1565b6104dc5760405162461bcd60e51b815260206004820152602560248201527f464143544f52593a20496e76616c6964206f7220696e6163746976652061726260448201526434ba32b91760d91b606482015260840160405180910390fd5b5f3386868686866040516104ef906105cf565b6104fe969594939291906107f0565b604051809103905ff080158015610517573d5f5f3e3d5ffd5b505f80546001810182559080527f290decd9548b62a8d60345a988386fc84ba6bc95484008f6362f93160ef3e5630180546001600160a01b0319166001600160a01b03838116918217909255604051868152929350908816913391907fd99c67ae0185d6b0a36717d67d259f252914f7955744e4d81a91685ff480896d9060200160405180910390a4505050505050565b5f81815481106105b6575f80fd5b5f918252602090912001546001600160a01b0316905081565b61189f8061086083390190565b602080825282518282018190525f918401906040840190835b8181101561061c5783516001600160a01b03168352602093840193909201916001016105f5565b509095945050505050565b6001600160a01b038116811461063b575f5ffd5b50565b5f6020828403121561064e575f5ffd5b813561065981610627565b9392505050565b634e487b7160e01b5f52604160045260245ffd5b5f5f5f5f5f60a08688031215610688575f5ffd5b853561069381610627565b945060208601356106a381610627565b935060408601356106b381610627565b925060608601359150608086013567ffffffffffffffff8111156106d5575f5ffd5b8601601f810188136106e5575f5ffd5b803567ffffffffffffffff8111156106ff576106ff610660565b604051601f8201601f19908116603f0116810167ffffffffffffffff8111828210171561072e5761072e610660565b6040528181528282016020018a1015610745575f5ffd5b816020840160208301375f602083830101528093505050509295509295909350565b5f60208284031215610777575f5ffd5b5035919050565b634e487b7160e01b5f52603260045260245ffd5b5f602082840312156107a2575f5ffd5b815161065981610627565b5f600182016107ca57634e487b7160e01b5f52601160045260245ffd5b5060010190565b5f602082840312156107e1575f5ffd5b81518015158114610659575f5ffd5b6001600160a01b038781168252868116602080840191909152868216604084015290851660608301526080820184905260c060a0830181905283519083018190525f918190850160e085015e5f60e0828501015260e0601f19601f83011684010191505097965050505050505056fe610100604052348015610010575f5ffd5b5060405161189f38038061189f83398101604081905261002f91610187565b60015f556001600160a01b0386161580159061005357506001600160a01b03851615155b6100b05760405162461bcd60e51b815260206004820152602360248201527f455343524f573a20496e76616c6964207061727469636970616e74206164647260448201526265737360e81b60648201526084015b60405180910390fd5b5f82116101105760405162461bcd60e51b815260206004820152602860248201527f455343524f573a20416d6f756e74206d7573742062652067726561746572207460448201526768616e207a65726f60c01b60648201526084016100a7565b6001600160a01b0380871660a05285811660c05284811660e0528316608052600282905560036101408282610305565b50506001805461ffff19169055506103bf9350505050565b80516001600160a01b038116811461016e575f5ffd5b919050565b634e487b7160e01b5f52604160045260245ffd5b5f5f5f5f5f5f60c0878903121561019c575f5ffd5b6101a587610158565b95506101b360208801610158565b94506101c160408801610158565b93506101cf60608801610158565b608088015160a089015191945092506001600160401b038111156101f1575f5ffd5b8701601f81018913610201575f5ffd5b80516001600160401b0381111561021a5761021a610173565b604051601f8201601f19908116603f011681016001600160401b038111828210171561024857610248610173565b6040528181528282016020018b101561025f575f5ffd5b8160208401602083015e5f602083830101528093505050509295509295509295565b600181811c9082168061029557607f821691505b6020821081036102b357634e487b7160e01b5f52602260045260245ffd5b50919050565b601f82111561030057805f5260205f20601f840160051c810160208510156102de5750805b601f840160051c820191505b818110156102fd575f81556001016102ea565b50505b505050565b81516001600160401b0381111561031e5761031e610173565b6103328161032c8454610281565b846102b9565b6020601f821160018114610364575f831561034d5750848201515b5f19600385901b1c1916600184901b1784556102fd565b5f84815260208120601f198516915b828110156103935787850151825560209485019460019092019101610373565b50848210156103b057868401515f19600387901b60f8161c191681555b50505050600190811b01905550565b60805160a05160c05160e05161142f6104705f395f8181610238015281816109df0152610ee701525f818161018e015281816102810152818161053901528181610b0201528181610db60152610ec601525f818161010e01528181610507015281816106e3015281816107d8015281816108e301528181610ac701528181610c970152610ea501525f8181610211015281816108060152818161091901528181610bcd0152610de6015261142f5ff3fe608060405234801561000f575f5ffd5b50600436106100f0575f3560e01c8063a5d737ac11610093578063f06ffe6411610063578063f06ffe64146101ed578063fc0c546a1461020c578063fe25e00a14610233578063ff3a9c7e1461025a575f5ffd5b8063a5d737ac146101b0578063d8461182146101b8578063ddb3a532146101cb578063ef8a9235146101d3575f5ffd5b80632bb30717116100ce5780632bb30717146101645780636daa2d4414610179578063755f047b14610181578063a37dda2c14610189575f5ffd5b8063095da7f6146100f4578063109e94cf146101095780631a39d8ef1461014d575b5f5ffd5b610107610102366004611094565b610276565b005b6101307f000000000000000000000000000000000000000000000000000000000000000081565b6040516001600160a01b0390911681526020015b60405180910390f35b61015660025481565b604051908152602001610144565b61016c610470565b6040516101449190611175565b6101076104fc565b61016c6106cb565b6101307f000000000000000000000000000000000000000000000000000000000000000081565b6101076106d8565b6101076101c636600461118e565b6109d4565b610107610c8c565b6001546101e09060ff1681565b60405161014491906111dc565b6001546101ff90610100900460ff1681565b6040516101449190611200565b6101307f000000000000000000000000000000000000000000000000000000000000000081565b6101307f000000000000000000000000000000000000000000000000000000000000000081565b610262610e99565b60405161014498979695949392919061120e565b336001600160a01b037f000000000000000000000000000000000000000000000000000000000000000016146102ff5760405162461bcd60e51b8152602060048201526024808201527f455343524f573a2043616c6c6572206973206e6f742074686520667265656c616044820152633731b2b960e11b60648201526084015b60405180910390fd5b6001805460ff166004811115610317576103176111b4565b14806103395750600260015460ff166004811115610337576103376111b4565b145b6103855760405162461bcd60e51b815260206004820152601c60248201527f455343524f573a2041677265656d656e74206e6f74206163746976650000000060448201526064016102f6565b5f600154610100900460ff1660028111156103a2576103a26111b4565b146103ef5760405162461bcd60e51b815260206004820152601e60248201527f455343524f573a20576f726b20616c7265616479207375626d6974746564000060448201526064016102f6565b6001805461ff001916610100179055600461040a8282611308565b506001805460ff166004811115610423576104236111b4565b03610436576001805460ff191660021790555b7f9d0581297f0ce789714b600feee27278aa53d55e6834cf60265df447fb5bdb5f816040516104659190611175565b60405180910390a150565b6004805461047d90611284565b80601f01602080910402602001604051908101604052809291908181526020018280546104a990611284565b80156104f45780601f106104cb576101008083540402835291602001916104f4565b820191905f5260205f20905b8154815290600101906020018083116104d757829003601f168201915b505050505081565b336001600160a01b037f000000000000000000000000000000000000000000000000000000000000000016148061055b5750336001600160a01b037f000000000000000000000000000000000000000000000000000000000000000016145b6105b35760405162461bcd60e51b8152602060048201526024808201527f455343524f573a204e6f74206120706172747920746f207468652061677265656044820152631b595b9d60e21b60648201526084016102f6565b600460015460ff1660048111156105cc576105cc6111b4565b036106195760405162461bcd60e51b815260206004820152601e60248201527f455343524f573a204469737075746520616c726561647920726169736564000060448201526064016102f6565b600360015460ff166004811115610632576106326111b4565b036106925760405162461bcd60e51b815260206004820152602a60248201527f455343524f573a2043616e6e6f74206469737075746520636f6d706c65746564604482015269081859dc99595b595b9d60b21b60648201526084016102f6565b6001805460ff1916600417905560405133907f0b3cd97b16a08a5c77357c276d248827ad32dfd56060f7c55d6255537ba3d962905f90a2565b6003805461047d90611284565b336001600160a01b037f000000000000000000000000000000000000000000000000000000000000000016146107505760405162461bcd60e51b815260206004820181905260248201527f455343524f573a2043616c6c6572206973206e6f742074686520636c69656e7460448201526064016102f6565b5f8060015460ff166004811115610769576107696111b4565b146107b65760405162461bcd60e51b815260206004820152601f60248201527f455343524f573a20496e76616c69642061677265656d656e742073746174650060448201526064016102f6565b6107be611058565b600254604051636eb1769f60e11b81526001600160a01b037f0000000000000000000000000000000000000000000000000000000000000000811660048301523060248301527f0000000000000000000000000000000000000000000000000000000000000000169063dd62ed3e90604401602060405180830381865afa15801561084b573d5f5f3e3d5ffd5b505050506040513d601f19601f8201168201806040525081019061086f91906113c3565b10156108c95760405162461bcd60e51b815260206004820152602360248201527f455343524f573a20436865636b20746f6b656e20617070726f76616c20616d6f6044820152621d5b9d60ea1b60648201526084016102f6565b6002546040516323b872dd60e01b81526001600160a01b037f00000000000000000000000000000000000000000000000000000000000000008116600483015230602483015260448201929092527f0000000000000000000000000000000000000000000000000000000000000000909116906323b872dd906064016020604051808303815f875af1158015610961573d5f5f3e3d5ffd5b505050506040513d601f19601f8201168201806040525081019061098591906113da565b506001805460ff1916811790556002546040519081527fdedbe31fcfd8842a2ccb1ab927ec0ccbd3ea30eda90fa7bc43b1d3a511963cb29060200160405180910390a16109d160015f55565b50565b336001600160a01b037f00000000000000000000000000000000000000000000000000000000000000001614610a565760405162461bcd60e51b815260206004820152602160248201527f455343524f573a2043616c6c6572206973206e6f7420746865206172626974656044820152603960f91b60648201526084016102f6565b60048060015460ff166004811115610a7057610a706111b4565b14610abd5760405162461bcd60e51b815260206004820152601f60248201527f455343524f573a20496e76616c69642061677265656d656e742073746174650060448201526064016102f6565b610ac5611058565b7f00000000000000000000000000000000000000000000000000000000000000006001600160a01b0316826001600160a01b03161480610b3657507f00000000000000000000000000000000000000000000000000000000000000006001600160a01b0316826001600160a01b0316145b610b965760405162461bcd60e51b815260206004820152602b60248201527f455343524f573a2057696e6e6572206d75737420626520636c69656e74206f7260448201526a10333932b2b630b731b2b960a91b60648201526084016102f6565b6001805460ff1916600317905560025460405163a9059cbb60e01b81526001600160a01b03848116600483015260248201929092527f00000000000000000000000000000000000000000000000000000000000000009091169063a9059cbb906044016020604051808303815f875af1158015610c15573d5f5f3e3d5ffd5b505050506040513d601f19601f82011682018060405250810190610c3991906113da565b50816001600160a01b03167ff396531fad1d4dc2cd92386cdea800c92a507f8fe1bdb80313eb32a57481b1dc600254604051610c7791815260200190565b60405180910390a2610c8860015f55565b5050565b336001600160a01b037f00000000000000000000000000000000000000000000000000000000000000001614610d045760405162461bcd60e51b815260206004820181905260248201527f455343524f573a2043616c6c6572206973206e6f742074686520636c69656e7460448201526064016102f6565b610d0c611058565b60018054610100900460ff166002811115610d2957610d296111b4565b14610d8d5760405162461bcd60e51b815260206004820152602e60248201527f455343524f573a20576f726b206e6f74207375626d6974746564206f7220616c60448201526d1c9958591e48185c1c1c9bdd995960921b60648201526084016102f6565b6001805461ffff191661020317905560025460405163a9059cbb60e01b81526001600160a01b037f00000000000000000000000000000000000000000000000000000000000000008116600483015260248201929092527f00000000000000000000000000000000000000000000000000000000000000009091169063a9059cbb906044016020604051808303815f875af1158015610e2e573d5f5f3e3d5ffd5b505050506040513d601f19601f82011682018060405250810190610e5291906113da565b507fe021b70c90c04cb1a4fae9fbcf358044aab6b86f01086a2af93b8e5c33abc2b6600254604051610e8691815260200190565b60405180910390a1610e9760015f55565b565b5f5f5f5f60605f5f60607f00000000000000000000000000000000000000000000000000000000000000007f00000000000000000000000000000000000000000000000000000000000000007f0000000000000000000000000000000000000000000000000000000000000000600254600360015f9054906101000a900460ff1660018054906101000a900460ff166004838054610f3690611284565b80601f0160208091040260200160405190810160405280929190818152602001828054610f6290611284565b8015610fad5780601f10610f8457610100808354040283529160200191610fad565b820191905f5260205f20905b815481529060010190602001808311610f9057829003601f168201915b50505050509350808054610fc090611284565b80601f0160208091040260200160405190810160405280929190818152602001828054610fec90611284565b80156110375780601f1061100e57610100808354040283529160200191611037565b820191905f5260205f20905b81548152906001019060200180831161101a57829003601f168201915b50505050509050975097509750975097509750975097509091929394959697565b60025f540361107a57604051633ee5aeb560e01b815260040160405180910390fd5b60025f55565b634e487b7160e01b5f52604160045260245ffd5b5f602082840312156110a4575f5ffd5b813567ffffffffffffffff8111156110ba575f5ffd5b8201601f810184136110ca575f5ffd5b803567ffffffffffffffff8111156110e4576110e4611080565b604051601f8201601f19908116603f0116810167ffffffffffffffff8111828210171561111357611113611080565b60405281815282820160200186101561112a575f5ffd5b816020840160208301375f91810160200191909152949350505050565b5f81518084528060208401602086015e5f602082860101526020601f19601f83011685010191505092915050565b602081525f6111876020830184611147565b9392505050565b5f6020828403121561119e575f5ffd5b81356001600160a01b0381168114611187575f5ffd5b634e487b7160e01b5f52602160045260245ffd5b600581106111d8576111d86111b4565b9052565b602081016111ea82846111c8565b92915050565b600381106111d8576111d86111b4565b602081016111ea82846111f0565b6001600160a01b03898116825288811660208301528716604082015260608101869052610100608082018190525f9061124990830187611147565b61125660a08401876111c8565b61126360c08401866111f0565b82810360e08401526112758185611147565b9b9a5050505050505050505050565b600181811c9082168061129857607f821691505b6020821081036112b657634e487b7160e01b5f52602260045260245ffd5b50919050565b601f82111561130357805f5260205f20601f840160051c810160208510156112e15750805b601f840160051c820191505b81811015611300575f81556001016112ed565b50505b505050565b815167ffffffffffffffff81111561132257611322611080565b611336816113308454611284565b846112bc565b6020601f821160018114611368575f83156113515750848201515b5f19600385901b1c1916600184901b178455611300565b5f84815260208120601f198516915b828110156113975787850151825560209485019460019092019101611377565b50848210156113b457868401515f19600387901b60f8161c191681555b50505050600190811b01905550565b5f602082840312156113d3575f5ffd5b5051919050565b5f602082840312156113ea575f5ffd5b81518015158114611187575f5ffdfea26469706673582212207b27894194066a932688c3f9e2efffdee1c01bdfc9e811fe9801a125ca88724064736f6c634300081c0033a2646970667358221220b98adc80fb3a978534f011c5b7151b7864702665751f4221eccd108dbe9b668764736f6c634300081c0033",
  "linkReferences": {},
  "deployedLinkReferences": {},
  "immutableReferences": {
    "465": [
      {
        "length": 32,
        "start": 126
      },
      {
        "length": 32,
        "start": 1045
      }
    ]
  },
  "inputSourceName": "project/contracts/EscrowFactory.sol",
  "buildInfoId": "solc-0_8_28-8375c38f70e96b6313845357ebdda903117a9e58"
}