{
  "_format": "hh3-artifact-1",
  "contractName": "ArbiterRegistry",
  "sourceName": "contracts/ArbiterRegistry.sol",
  "abi": [
    {
      "inputs": [],
      "stateMutability": "nonpayable",
      "type": "constructor"
    },
    {
      "inputs": [
        {
          "internalType": "address",
          "name": "owner",
          "type": "address"
        }
      ],
      "name": "OwnableInvalidOwner",
      "type": "error"
    },
    {
      "inputs": [
        {
          "internalType": "address",
          "name": "account",
          "type": "address"
        }
      ],
      "name": "OwnableUnauthorizedAccount",
      "type": "error"
    },
    {
      "anonymous": false,
      "inputs": [
        {
          "indexed": true,
          "internalType": "address",
          "name": "arbiterAddress",
          "type": "address"
        },
        {
          "indexed": false,
          "internalType": "string",
          "name": "name",
          "type": "string"
        }
      ],
      "name": "ArbiterAdded",
      "type": "event"
    },
    {
      "anonymous": false,
      "inputs": [
        {
          "indexed": true,
          "internalType": "address",
          "name": "arbiterAddress",
          "type": "address"
        }
      ],
      "name": "ArbiterRemoved",
      "type": "event"
    },
    {
      "anonymous": false,
      "inputs": [
        {
          "indexed": true,
          "internalType": "address",
          "name": "previousOwner",
          "type": "address"
        },
        {
          "indexed": true,
          "internalType": "address",
          "name": "newOwner",
          "type": "address"
        }
      ],
      "name": "OwnershipTransferred",
      "type": "event"
    },
    {
      "inputs": [
        {
          "internalType": "address",
          "name": "_arbiterAddress",
          "type": "address"
        },
        {
          "internalType": "string",
          "name": "_name",
          "type": "string"
        },
        {
          "internalType": "string",
          "name": "_profileHash",
          "type": "string"
        }
      ],
      "name": "addArbiter",
      "outputs": [],
      "stateMutability": "nonpayable",
      "type": "function"
    },
    {
      "inputs": [
        {
          "internalType": "uint256",
          "name": "",
          "type": "uint256"
        }
      ],
      "name": "arbiterList",
      "outputs": [
        {
          "internalType": "address",
          "name": "",
          "type": "address"
        }
      ],
      "stateMutability": "view",
      "type": "function"
    },
    {
      "inputs": [
        {
          "internalType": "address",
          "name": "",
          "type": "address"
        }
      ],
      "name": "arbiters",
      "outputs": [
        {
          "internalType": "string",
          "name": "name",
          "type": "string"
        },
        {
          "internalType": "string",
          "name": "profileHash",
          "type": "string"
        },
        {
          "internalType": "bool",
          "name": "isActive",
          "type": "bool"
        }
      ],
      "stateMutability": "view",
      "type": "function"
    },
    {
      "inputs": [],
      "name": "getArbiterList",
      "outputs": [
        {
          "internalType": "address[]",
          "name": "",
          "type": "address[]"
        }
      ],
      "stateMutability": "view",
      "type": "function"
    },
    {
      "inputs": [
        {
          "internalType": "address",
          "name": "_arbiterAddress",
          "type": "address"
        }
      ],
      "name": "isArbiterActive",
      "outputs": [
        {
          "internalType": "bool",
          "name": "",
          "type": "bool"
        }
      ],
      "stateMutability": "view",
      "type": "function"
    },
    {
      "inputs": [],
      "name": "owner",
      "outputs": [
        {
          "internalType": "address",
          "name": "",
          "type": "address"
        }
      ],
      "stateMutability": "view",
      "type": "function"
    },
    {
      "inputs": [
        {
          "internalType": "address",
          "name": "_arbiterAddress",
          "type": "address"
        }
      ],
      "name": "removeArbiter",
      "outputs": [],
      "stateMutability": "nonpayable",
      "type": "function"
    },
    {
      "inputs": [],
      "name": "renounceOwnership",
      "outputs": [],
      "stateMutability": "nonpayable",
      "type": "function"
    },
    {
      "inputs": [
        {
          "internalType": "address",
          "name": "newOwner",
          "type": "address"
        }
      ],
      "name": "transferOwnership",
      "outputs": [],
      "stateMutability": "nonpayable",
      "type": "function"
    }
  ],
  "bytecode": "0x6080604052348015600e575f5ffd5b503380603357604051631e4fbdf760e01b81525f600482015260240160405180910390fd5b603a81603f565b50608e565b5f80546001600160a01b038381166001600160a01b0319831681178455604051919092169283917f8be0079c531659141344cd1fd0a4f28419497f9722a3daafe3b4186f6b6457e09190a35050565b6109ed8061009b5f395ff3fe608060405234801561000f575f5ffd5b5060043610610090575f3560e01c8063741412661161006357806374141266146101075780637bf2bb10146101325780638da5cb5b14610154578063aa12bc3c14610164578063f2fde38b14610179575f5ffd5b806328701a5e146100945780633487e08c146100a957806343d9e184146100bc578063715018a6146100ff575b5f5ffd5b6100a76100a236600461070b565b61018c565b005b6100a76100b736600461077f565b6102fa565b6100ea6100ca36600461077f565b6001600160a01b03165f9081526001602052604090206002015460ff1690565b60405190151581526020015b60405180910390f35b6100a76103ce565b61011a61011536600461079f565b6103e1565b6040516001600160a01b0390911681526020016100f6565b61014561014036600461077f565b610409565b6040516100f6939291906107e4565b5f546001600160a01b031661011a565b61016c610539565b6040516100f6919061081b565b6100a761018736600461077f565b610599565b6101946105d6565b6001600160a01b0383165f9081526001602052604090206002015460ff16156102045760405162461bcd60e51b815260206004820152601760248201527f4172626974657220616c7265616479206578697374732e00000000000000000060448201526064015b60405180910390fd5b60408051606081018252838152602080820184905260018284018190526001600160a01b0387165f9081529152919091208151819061024390826108ea565b506020820151600182019061025890826108ea565b506040918201516002918201805460ff191691151591909117905580546001810182555f919091527f405787fa12a823e0f2b7631cc41b3ba8828b3321ca811111fa75cd3aa3bb5ace0180546001600160a01b0319166001600160a01b03861690811790915590517ffe448d1ca19e4b49d3307b9cf069491a971d305e5da0ff6ea25f1cfdfc2264b9906102ed9085906109a5565b60405180910390a2505050565b6103026105d6565b6001600160a01b0381165f9081526001602052604090206002015460ff166103835760405162461bcd60e51b815260206004820152602e60248201527f4172626974657220646f6573206e6f74206578697374206f7220697320616c7260448201526d32b0b23c9034b730b1ba34bb329760911b60648201526084016101fb565b6001600160a01b0381165f81815260016020526040808220600201805460ff19169055517fb7a0f68489d6e103758c5896f7f700d18e1e9213039ef12daf1c81a88b1ce6719190a250565b6103d66105d6565b6103df5f610602565b565b600281815481106103f0575f80fd5b5f918252602090912001546001600160a01b0316905081565b60016020525f908152604090208054819061042390610866565b80601f016020809104026020016040519081016040528092919081815260200182805461044f90610866565b801561049a5780601f106104715761010080835404028352916020019161049a565b820191905f5260205f20905b81548152906001019060200180831161047d57829003601f168201915b5050505050908060010180546104af90610866565b80601f01602080910402602001604051908101604052809291908181526020018280546104db90610866565b80156105265780601f106104fd57610100808354040283529160200191610526565b820191905f5260205f20905b81548152906001019060200180831161050957829003601f168201915b5050506002909301549192505060ff1683565b6060600280548060200260200160405190810160405280929190818152602001828054801561058f57602002820191905f5260205f20905b81546001600160a01b03168152600190910190602001808311610571575b5050505050905090565b6105a16105d6565b6001600160a01b0381166105ca57604051631e4fbdf760e01b81525f60048201526024016101fb565b6105d381610602565b50565b5f546001600160a01b031633146103df5760405163118cdaa760e01b81523360048201526024016101fb565b5f80546001600160a01b038381166001600160a01b0319831681178455604051919092169283917f8be0079c531659141344cd1fd0a4f28419497f9722a3daafe3b4186f6b6457e09190a35050565b80356001600160a01b0381168114610667575f5ffd5b919050565b634e487b7160e01b5f52604160045260245ffd5b5f82601f83011261068f575f5ffd5b813567ffffffffffffffff8111156106a9576106a961066c565b604051601f8201601f19908116603f0116810167ffffffffffffffff811182821017156106d8576106d861066c565b6040528181528382016020018510156106ef575f5ffd5b816020850160208301375f918101602001919091529392505050565b5f5f5f6060848603121561071d575f5ffd5b61072684610651565b9250602084013567ffffffffffffffff811115610741575f5ffd5b61074d86828701610680565b925050604084013567ffffffffffffffff811115610769575f5ffd5b61077586828701610680565b9150509250925092565b5f6020828403121561078f575f5ffd5b61079882610651565b9392505050565b5f602082840312156107af575f5ffd5b5035919050565b5f81518084528060208401602086015e5f602082860101526020601f19601f83011685010191505092915050565b606081525f6107f660608301866107b6565b828103602084015261080881866107b6565b9150508215156040830152949350505050565b602080825282518282018190525f918401906040840190835b8181101561085b5783516001600160a01b0316835260209384019390920191600101610834565b509095945050505050565b600181811c9082168061087a57607f821691505b60208210810361089857634e487b7160e01b5f52602260045260245ffd5b50919050565b601f8211156108e557805f5260205f20601f840160051c810160208510156108c35750805b601f840160051c820191505b818110156108e2575f81556001016108cf565b50505b505050565b815167ffffffffffffffff8111156109045761090461066c565b610918816109128454610866565b8461089e565b6020601f82116001811461094a575f83156109335750848201515b5f19600385901b1c1916600184901b1784556108e2565b5f84815260208120601f198516915b828110156109795787850151825560209485019460019092019101610959565b508482101561099657868401515f19600387901b60f8161c191681555b50505050600190811b01905550565b602081525f61079860208301846107b656fea2646970667358221220ccb900c24c2c663922d0a313c01e6601cdd7713550304625c302bb507ee27f0b64736f6c634300081c0033",
  "linkReferences": {},
  "deployedLinkReferences": {},
  "immutableReferences": {},
  "inputSourceName": "project/contracts/ArbiterRegistry.sol",
  "buildInfoId": "solc-0_8_28-289f9a58dfba49ea5662fb498032c10ff2802fba"
}